{
  "contractName": "Dmsg",
  "abi": [
    {
      "constant": true,
      "inputs": [
        {
          "name": "",
          "type": "uint256"
        }
      ],
      "name": "messages",
      "outputs": [
        {
          "name": "sender",
          "type": "address"
        },
        {
          "name": "recipient",
          "type": "address"
        },
        {
          "name": "text",
          "type": "string"
        },
        {
          "name": "created_at",
          "type": "uint256"
        }
      ],
      "payable": false,
      "stateMutability": "view",
      "type": "function"
    },
    {
      "inputs": [],
      "payable": false,
      "stateMutability": "nonpayable",
      "type": "constructor"
    },
    {
      "anonymous": false,
      "inputs": [
        {
          "indexed": true,
          "name": "id",
          "type": "uint256"
        },
        {
          "indexed": true,
          "name": "sender",
          "type": "address"
        },
        {
          "indexed": true,
          "name": "recipient",
          "type": "address"
        },
        {
          "indexed": false,
          "name": "text",
          "type": "string"
        },
        {
          "indexed": false,
          "name": "created_at",
          "type": "uint256"
        }
      ],
      "name": "MessageSent",
      "type": "event"
    },
    {
      "constant": true,
      "inputs": [
        {
          "name": "id",
          "type": "uint256"
        }
      ],
      "name": "getMessage",
      "outputs": [
        {
          "name": "",
          "type": "uint256"
        },
        {
          "name": "",
          "type": "address"
        },
        {
          "name": "",
          "type": "address"
        },
        {
          "name": "",
          "type": "string"
        },
        {
          "name": "",
          "type": "uint256"
        }
      ],
      "payable": false,
      "stateMutability": "view",
      "type": "function"
    },
    {
      "constant": true,
      "inputs": [
        {
          "name": "theother",
          "type": "address"
        }
      ],
      "name": "getMessages",
      "outputs": [
        {
          "name": "",
          "type": "uint256[20]"
        }
      ],
      "payable": false,
      "stateMutability": "view",
      "type": "function"
    },
    {
      "constant": false,
      "inputs": [
        {
          "name": "recipient",
          "type": "address"
        },
        {
          "name": "text",
          "type": "string"
        }
      ],
      "name": "sendMessage",
      "outputs": [
        {
          "name": "",
          "type": "uint256"
        }
      ],
      "payable": false,
      "stateMutability": "nonpayable",
      "type": "function"
    }
  ],
  "bytecode": "0x608060405234801561001057600080fd5b506000608060405190810160405280600073ffffffffffffffffffffffffffffffffffffffff168152602001600073ffffffffffffffffffffffffffffffffffffffff16815260200160206040519081016040528060008152508152602001428152509080600181540180825580915050906001820390600052602060002090600402016000909192909190915060008201518160000160006101000a81548173ffffffffffffffffffffffffffffffffffffffff021916908373ffffffffffffffffffffffffffffffffffffffff16021790555060208201518160010160006101000a81548173ffffffffffffffffffffffffffffffffffffffff021916908373ffffffffffffffffffffffffffffffffffffffff160217905550604082015181600201908051906020019061014892919061015b565b5060608201518160030155505050610200565b828054600181600116156101000203166002900490600052602060002090601f016020900481019282601f1061019c57805160ff19168380011785556101ca565b828001600101855582156101ca579182015b828111156101c95782518255916020019190600101906101ae565b5b5090506101d791906101db565b5090565b6101fd91905b808211156101f95760008160009055506001016101e1565b5090565b90565b610e9b8061020f6000396000f300608060405260043610610062576000357c0100000000000000000000000000000000000000000000000000000000900463ffffffff1680630d80fefd1461006757806386f79edb1461017a578063b2f7132214610294578063de6f24bb14610313575b600080fd5b34801561007357600080fd5b5061009260048036038101908080359060200190929190505050610382565b604051808573ffffffffffffffffffffffffffffffffffffffff1673ffffffffffffffffffffffffffffffffffffffff1681526020018473ffffffffffffffffffffffffffffffffffffffff1673ffffffffffffffffffffffffffffffffffffffff16815260200180602001838152602001828103825284818151815260200191508051906020019080838360005b8381101561013c578082015181840152602081019050610121565b50505050905090810190601f1680156101695780820380516001836020036101000a031916815260200191505b509550505050505060405180910390f35b34801561018657600080fd5b506101a560048036038101908080359060200190929190505050610499565b604051808681526020018573ffffffffffffffffffffffffffffffffffffffff1673ffffffffffffffffffffffffffffffffffffffff1681526020018473ffffffffffffffffffffffffffffffffffffffff1673ffffffffffffffffffffffffffffffffffffffff16815260200180602001838152602001828103825284818151815260200191508051906020019080838360005b8381101561025557808201518184015260208101905061023a565b50505050905090810190601f1680156102825780820380516001836020036101000a031916815260200191505b50965050505050505060405180910390f35b3480156102a057600080fd5b506102d5600480360381019080803573ffffffffffffffffffffffffffffffffffffffff16906020019092919050505061066c565b6040518082601460200280838360005b838110156103005780820151818401526020810190506102e5565b5050505090500191505060405180910390f35b34801561031f57600080fd5b5061036c600480360381019080803573ffffffffffffffffffffffffffffffffffffffff169060200190929190803590602001908201803590602001919091929391929390505050610a2d565b6040518082815260200191505060405180910390f35b60008181548110151561039157fe5b90600052602060002090600402016000915090508060000160009054906101000a900473ffffffffffffffffffffffffffffffffffffffff16908060010160009054906101000a900473ffffffffffffffffffffffffffffffffffffffff1690806002018054600181600116156101000203166002900480601f0160208091040260200160405190810160405280929190818152602001828054600181600116156101000203166002900480156104895780601f1061045e57610100808354040283529160200191610489565b820191906000526020600020905b81548152906001019060200180831161046c57829003601f168201915b5050505050908060030154905084565b6000806000606060006104aa610d51565b600080549050871015156104bd57600080fd5b6000878154811015156104cc57fe5b9060005260206000209060040201608060405190810160405290816000820160009054906101000a900473ffffffffffffffffffffffffffffffffffffffff1673ffffffffffffffffffffffffffffffffffffffff1673ffffffffffffffffffffffffffffffffffffffff1681526020016001820160009054906101000a900473ffffffffffffffffffffffffffffffffffffffff1673ffffffffffffffffffffffffffffffffffffffff1673ffffffffffffffffffffffffffffffffffffffff168152602001600282018054600181600116156101000203166002900480601f01602080910402602001604051908101604052809291908181526020018280546001816001161561010002031660029004801561062b5780601f106106005761010080835404028352916020019161062b565b820191906000526020600020905b81548152906001019060200180831161060e57829003601f168201915b505050505081526020016003820154815250509050868160000151826020015183604001518460600151819150955095509550955095505091939590929450565b610674610da6565b61067c610da6565b6000806000610689610d51565b60009350600092505b600160003373ffffffffffffffffffffffffffffffffffffffff1673ffffffffffffffffffffffffffffffffffffffff16815260200190815260200160002080549050831080156106e35750601484105b15610a2057600160003373ffffffffffffffffffffffffffffffffffffffff1673ffffffffffffffffffffffffffffffffffffffff1681526020019081526020016000208360018060003373ffffffffffffffffffffffffffffffffffffffff1673ffffffffffffffffffffffffffffffffffffffff16815260200190815260200160002080549050030381548110151561077a57fe5b9060005260206000200154915060008281548110151561079657fe5b9060005260206000209060040201608060405190810160405290816000820160009054906101000a900473ffffffffffffffffffffffffffffffffffffffff1673ffffffffffffffffffffffffffffffffffffffff1673ffffffffffffffffffffffffffffffffffffffff1681526020016001820160009054906101000a900473ffffffffffffffffffffffffffffffffffffffff1673ffffffffffffffffffffffffffffffffffffffff1673ffffffffffffffffffffffffffffffffffffffff168152602001600282018054600181600116156101000203166002900480601f0160208091040260200160405190810160405280929190818152602001828054600181600116156101000203166002900480156108f55780601f106108ca576101008083540402835291602001916108f5565b820191906000526020600020905b8154815290600101906020018083116108d857829003601f168201915b5050505050815260200160038201548152505090503373ffffffffffffffffffffffffffffffffffffffff16816000015173ffffffffffffffffffffffffffffffffffffffff1614801561097857508673ffffffffffffffffffffffffffffffffffffffff16816020015173ffffffffffffffffffffffffffffffffffffffff16145b806109ed57508673ffffffffffffffffffffffffffffffffffffffff16816000015173ffffffffffffffffffffffffffffffffffffffff161480156109ec57503373ffffffffffffffffffffffffffffffffffffffff16816020015173ffffffffffffffffffffffffffffffffffffffff16145b5b15610a1357818585601481101515610a0157fe5b60200201818152505083806001019450505b8280600101935050610692565b8495505050505050919050565b60008060008573ffffffffffffffffffffffffffffffffffffffff163373ffffffffffffffffffffffffffffffffffffffff1614151515610a6d57600080fd5b600085859050111515610a7f57600080fd5b429150600160006080604051908101604052803373ffffffffffffffffffffffffffffffffffffffff1681526020018973ffffffffffffffffffffffffffffffffffffffff16815260200188888080601f0160208091040260200160405190810160405280939291908181526020018383808284378201915050505050508152602001858152509080600181540180825580915050906001820390600052602060002090600402016000909192909190915060008201518160000160006101000a81548173ffffffffffffffffffffffffffffffffffffffff021916908373ffffffffffffffffffffffffffffffffffffffff16021790555060208201518160010160006101000a81548173ffffffffffffffffffffffffffffffffffffffff021916908373ffffffffffffffffffffffffffffffffffffffff1602179055506040820151816002019080519060200190610bdb929190610dca565b50606082015181600301555050039050600160003373ffffffffffffffffffffffffffffffffffffffff1673ffffffffffffffffffffffffffffffffffffffff168152602001908152602001600020819080600181540180825580915050906001820390600052602060002001600090919290919091505550600160008773ffffffffffffffffffffffffffffffffffffffff1673ffffffffffffffffffffffffffffffffffffffff1681526020019081526020016000208190806001815401808255809150509060018203906000526020600020016000909192909190915055508573ffffffffffffffffffffffffffffffffffffffff163373ffffffffffffffffffffffffffffffffffffffff16827f94d6e4822f4adcde26d85197d96befa68dced8d7db67685000cfc97783260da488888760405180806020018381526020018281038252858582818152602001925080828437820191505094505050505060405180910390a480925050509392505050565b608060405190810160405280600073ffffffffffffffffffffffffffffffffffffffff168152602001600073ffffffffffffffffffffffffffffffffffffffff16815260200160608152602001600081525090565b61028060405190810160405280601490602082028038833980820191505090505090565b828054600181600116156101000203166002900490600052602060002090601f016020900481019282601f10610e0b57805160ff1916838001178555610e39565b82800160010185558215610e39579182015b82811115610e38578251825591602001919060010190610e1d565b5b509050610e469190610e4a565b5090565b610e6c91905b80821115610e68576000816000905550600101610e50565b5090565b905600a165627a7a723058201eea5e1830dacb73a2eb760bae49421949cd720ea8c2aacc027a3cfc8e6eeef00029",
  "source": "pragma solidity ^0.4.23;\n\ncontract Dmsg {\n  struct Message {\n    address sender;\n    address recipient;\n    string text;\n    uint created_at;\n  }\n\n  event MessageSent ( uint indexed id, address indexed sender, address indexed recipient, string text, uint created_at);\n\n  Message[] public messages;\n  mapping(address => uint[]) userToMessages;\n  \n  constructor() public\n  {\n    // To avoid id=0\n    messages.push(Message(0, 0, \"\", now));\n  }\n\n  function getMessage(uint id) external view returns(uint, address, address, string, uint)\n  {\n    require(id < messages.length);\n\tMessage memory message = messages[id];\n    return (id, message.sender, message.recipient, message.text, message.created_at);\n  }\n\n  // returns latest 20 messages between msg.sender and theother.\n  function getMessages(address theother) external view returns (uint[20])\n  {\n    uint[20] memory results;\n\tuint counter = 0;\n    for (uint i=0; i < userToMessages[msg.sender].length && counter < 20; i++)\n\t{\n\t  uint mId = userToMessages[msg.sender][userToMessages[msg.sender].length - 1 - i];\n\t  Message memory m = messages[mId];\n\t  if ((m.sender == msg.sender && m.recipient == theother) || (m.sender == theother && m.recipient == msg.sender))\n\t  {\n\t    results[counter] = mId;\n\t    counter++;\n\t  }\n\t}\n\n\treturn results;\n  }\n\n  // Send a message from msg.sender to recipient\n  function sendMessage(address recipient, string text) external returns(uint)\n  {\n    require(msg.sender != recipient);\n    require(bytes(text).length > 0);\n    uint timestamp = now;\n    uint id = messages.push(Message(msg.sender, recipient, text, timestamp)) - 1;\n\tuserToMessages[msg.sender].push(id);\n\tuserToMessages[recipient].push(id);\n\temit MessageSent(id, msg.sender, recipient, text, timestamp);\n\treturn id;\n  }\n}\n",
  "sourcePath": "/Users/shunsuke/EthereumProjects/dmsg/contracts/Dmsg.sol",
  "compiler": {
    "name": "solc",
    "version": "0.4.24+commit.e67f0147.Emscripten.clang"
  },
  "schemaVersion": "2.0.0",
  "updatedAt": "2018-06-02T05:15:37.617Z"
}